:020000040000FA
:1000000025000000FF0AE20128082E0834083A08FB
:10001000400846084D08530859085F0865086B08F2
:10002000710878087E0884088A08900896089D0858
:10003000A308A908AF08B508BB08C208C8081F0C68
:10004000810003072E0A21001305AB02AC02A20CAB
:100050008C0003072E0A6C00B2022E0AB30772004E
:10006000B3076C001102920003073C0A7200A60459
:100070008604B304F3043C0A0008F307000886056D
:100080000000000000000000000000000000000070
:100090000000000000000000000000000000000060
:1000A0000000000000000000000000000000000050
:1000B0000000000000000000000000000000000040
:1003F00000000000000000000000000000002808CD
:021FFE00F00FE2
:0804000009000E0006000000D7
:00000001FF
