:02000000FD2BD6
:1003B00083122808A0002908A100A2018E30AB00FA
:1003C0002B08A300A401342283122008A8002108CE
:1003D000A9002208AA000800831285011F30831695
:1003E00085000730831299008316960180308100C2
:1003F0008312D001D101F4308312CA000130CB0046
:100400000222FB29831285164B08A9004A08A8007E
:10041000D82183122808AF002908B0002A08B100AB
:100420000030AC007A30AD004430AE002E23831291
:100430002C08BC002D08BD002E08BE00A12283128E
:100440003C08CC003D08CD003E08CE003F08CF0060
:10045000831285120D30CD00FB30CC00CC0B2E2A40
:10046000CD0B2E2A332A08008312230803193D2AB4
:10047000220821042004031D502A0030A00000306F
:10048000A1000030A20008000130A5002508A30744
:1004900001300310A20CA10CA00CFF3E031D492A41
:1004A000FE30220503196B2A442A0130A5002508D5
:1004B000A3070130A007003003180130A107003066
:1004C00003180130A20701300310A20CA10CA00CEC
:1004D000FF3E031D642AFF30220503197A2A552A9C
:1004E0000130A30201300310A00DA10DA20DFF3EAB
:1004F000031D732AA11B802A023023020318702ACD
:100500002318882AFF30A0057F30A105FF30A205FF
:100510000310A30C2308A500A601A70110300310A7
:10052000A50DA60DA70DFF3E031D8F2A2508A004CB
:100530002608A1042708A204240803190800A2170A
:10054000080083123C08C0003D08C1003E08C200FC
:100550000310410D420DC3004308C9004908031DA3
:10056000BA2A0030BF000030BE000030BD000030AD
:10057000BC0008003C08C0003D08C1003E08C200A5
:1005800017300310C20CC10CC00CFF3E031DC12A62
:100590004008C3004308C400BD17FF30BC05FF304E
:1005A000BD050030BE053C08C5003D08C6003E083C
:1005B000C700C8018E30C902C91FFC2A4908803A09
:1005C0008F3E0318EC2A0030BF000030BE00003020
:1005D000BD000030BC00080001300310C80CC70C7F
:1005E000C60CC50CFF3E031DED2A0130C0004008BB
:1005F000C9070319172BEC2A18304902031C142BC6
:100600000030BF000030BE000030BD000030BC0034
:1006100008000130C0000310C50DC60DC70DC80D80
:10062000C00B0B2B0130C9024908031D092B4408DC
:100630000319252BC509C609C709C809C50A031925
:10064000C60A0319C70A0319C80A4808BF004708A1
:10065000BE004608BD004508BC00080083122C08F7
:10066000B2002D08B3002E08B4000310330D340D72
:10067000B5003508B6003608031D452B0030AC0028
:100680000030AD000030AE0008002F08B200300886
:10069000B3003108B4000310330D340DB500350834
:1006A000BB003B08031D5B2B0030AC000030AD00ED
:1006B0000030AE0008003B087B3EB2003208B607AF
:1006C0002C08B2002D08B3002E08B400103003101F
:1006D000B40CB30CB20CFF3E031D672B3208B500FF
:1006E0003508BB002F08B2003008B3003108B40051
:1006F00010300310B40CB30CB20CFF3E031D792B69
:100700003208B5003508BB068030B2003208BB05A0
:10071000AD17B017FF30AF05FF30B0050030B105A1
:100720000030B7000030B8000030B9000730B20028
:100730003208BA002C1CAA2B2F08B7073008031167
:100740000318300A031DB807310803110318310AD2
:10075000031DB90701300310AE0CAD0CAC0CFF3E0D
:10076000031DAB2B01300310AF0DB00DB10DFF3EDB
:10077000031DB32B0130BA02031D9A2B0930B200BE
:100780003208BA002C1CD22B2F08B70730080311EF
:100790000318300A031DB807310803110318310A82
:1007A000031DB90701300310AE0CAD0CAC0CFF3EBD
:1007B000031DD32B01300310B90CB80CB70CFF3E4E
:1007C000031DDB2B0130BA02031DC22B3708A0002A
:1007D0003808A1003908A2003608B2003208A30088
:1007E0003B08B3003308A400342283122008AC0075
:0E07F0002108AD002208AE0008008301EC29AC
:02400E00D431AB
:00000001FF
